{
  "_format": "hh-sol-artifact-1",
  "contractName": "Counter",
  "sourceName": "contracts/Counter.sol",
  "abi": [
    {
      "inputs": [
        {
          "internalType": "int32",
          "name": "initCounter",
          "type": "int32"
        }
      ],
      "stateMutability": "nonpayable",
      "type": "constructor"
    },
    {
      "anonymous": false,
      "inputs": [
        {
          "indexed": false,
          "internalType": "int32",
          "name": "oldVal",
          "type": "int32"
        },
        {
          "indexed": false,
          "internalType": "int32",
          "name": "newVal",
          "type": "int32"
        }
      ],
      "name": "UpdatedCounter",
      "type": "event"
    },
    {
      "inputs": [],
      "name": "decrement",
      "outputs": [],
      "stateMutability": "nonpayable",
      "type": "function"
    },
    {
      "inputs": [],
      "name": "increment",
      "outputs": [],
      "stateMutability": "nonpayable",
      "type": "function"
    },
    {
      "inputs": [
        {
          "internalType": "int32",
          "name": "newVal",
          "type": "int32"
        }
      ],
      "name": "updateCounter",
      "outputs": [],
      "stateMutability": "nonpayable",
      "type": "function"
    }
  ],
  "bytecode": "0x608060405234801561001057600080fd5b5060405161043c38038061043c83398181016040528101906100329190610099565b806000806101000a81548163ffffffff021916908360030b63ffffffff160217905550506100c6565b600080fd5b60008160030b9050919050565b61007681610060565b811461008157600080fd5b50565b6000815190506100938161006d565b92915050565b6000602082840312156100af576100ae61005b565b5b60006100bd84828501610084565b91505092915050565b610367806100d56000396000f3fe608060405234801561001057600080fd5b50600436106100415760003560e01c8063147941f7146100465780632baeceb714610062578063d09de08a1461006c575b600080fd5b610060600480360381019061005b9190610229565b610076565b005b61006a6100e9565b005b61007461016a565b005b60008060009054906101000a900460030b9050816000806101000a81548163ffffffff021916908360030b63ffffffff1602179055507fe4d64b9599bda03ceca29149d06ccfed6c2cbbd989337f219dd0dda6f0393f1581836040516100dd929190610265565b60405180910390a15050565b7fe4d64b9599bda03ceca29149d06ccfed6c2cbbd989337f219dd0dda6f0393f1560008054906101000a900460030b60008081819054906101000a900460030b610132906102bd565b91906101000a81548163ffffffff021916908360030b63ffffffff1602179055604051610160929190610265565b60405180910390a1565b7fe4d64b9599bda03ceca29149d06ccfed6c2cbbd989337f219dd0dda6f0393f1560008054906101000a900460030b60008081819054906101000a900460030b6101b390610305565b91906101000a81548163ffffffff021916908360030b63ffffffff16021790556040516101e1929190610265565b60405180910390a1565b600080fd5b60008160030b9050919050565b610206816101f0565b811461021157600080fd5b50565b600081359050610223816101fd565b92915050565b60006020828403121561023f5761023e6101eb565b5b600061024d84828501610214565b91505092915050565b61025f816101f0565b82525050565b600060408201905061027a6000830185610256565b6102876020830184610256565b9392505050565b7f4e487b7100000000000000000000000000000000000000000000000000000000600052601160045260246000fd5b60006102c8826101f0565b91507fffffffffffffffffffffffffffffffffffffffffffffffffffffffff8000000082036102fa576102f961028e565b5b600182039050919050565b6000610310826101f0565b9150637fffffff82036103265761032561028e565b5b60018201905091905056fea2646970667358221220adb9af284a28c8cce5e704ac5c4bedf207d6db05efef77fc05c919319503a72964736f6c63430008110033",
  "linkReferences": {},
  "deployedLinkReferences": {}
}